{
  "_format": "hh-sol-artifact-1",
  "contractName": "MyNFT",
  "sourceName": "contracts/MyNFT.sol",
  "abi": [
    {
      "inputs": [],
      "stateMutability": "nonpayable",
      "type": "constructor"
    },
    {
      "anonymous": false,
      "inputs": [
        {
          "indexed": true,
          "internalType": "address",
          "name": "owner",
          "type": "address"
        },
        {
          "indexed": true,
          "internalType": "address",
          "name": "approved",
          "type": "address"
        },
        {
          "indexed": true,
          "internalType": "uint256",
          "name": "tokenId",
          "type": "uint256"
        }
      ],
      "name": "Approval",
      "type": "event"
    },
    {
      "anonymous": false,
      "inputs": [
        {
          "indexed": true,
          "internalType": "address",
          "name": "owner",
          "type": "address"
        },
        {
          "indexed": true,
          "internalType": "address",
          "name": "operator",
          "type": "address"
        },
        {
          "indexed": false,
          "internalType": "bool",
          "name": "approved",
          "type": "bool"
        }
      ],
      "name": "ApprovalForAll",
      "type": "event"
    },
    {
      "anonymous": false,
      "inputs": [
        {
          "indexed": false,
          "internalType": "uint256",
          "name": "_fromTokenId",
          "type": "uint256"
        },
        {
          "indexed": false,
          "internalType": "uint256",
          "name": "_toTokenId",
          "type": "uint256"
        }
      ],
      "name": "BatchMetadataUpdate",
      "type": "event"
    },
    {
      "anonymous": false,
      "inputs": [
        {
          "indexed": false,
          "internalType": "uint256",
          "name": "_tokenId",
          "type": "uint256"
        }
      ],
      "name": "MetadataUpdate",
      "type": "event"
    },
    {
      "anonymous": false,
      "inputs": [
        {
          "indexed": true,
          "internalType": "address",
          "name": "previousOwner",
          "type": "address"
        },
        {
          "indexed": true,
          "internalType": "address",
          "name": "newOwner",
          "type": "address"
        }
      ],
      "name": "OwnershipTransferred",
      "type": "event"
    },
    {
      "anonymous": false,
      "inputs": [
        {
          "indexed": true,
          "internalType": "address",
          "name": "from",
          "type": "address"
        },
        {
          "indexed": true,
          "internalType": "address",
          "name": "to",
          "type": "address"
        },
        {
          "indexed": true,
          "internalType": "uint256",
          "name": "tokenId",
          "type": "uint256"
        }
      ],
      "name": "Transfer",
      "type": "event"
    },
    {
      "inputs": [
        {
          "internalType": "address",
          "name": "to",
          "type": "address"
        },
        {
          "internalType": "uint256",
          "name": "tokenId",
          "type": "uint256"
        }
      ],
      "name": "approve",
      "outputs": [],
      "stateMutability": "nonpayable",
      "type": "function"
    },
    {
      "inputs": [
        {
          "internalType": "address",
          "name": "owner",
          "type": "address"
        }
      ],
      "name": "balanceOf",
      "outputs": [
        {
          "internalType": "uint256",
          "name": "",
          "type": "uint256"
        }
      ],
      "stateMutability": "view",
      "type": "function"
    },
    {
      "inputs": [
        {
          "internalType": "uint256",
          "name": "tokenId",
          "type": "uint256"
        }
      ],
      "name": "getApproved",
      "outputs": [
        {
          "internalType": "address",
          "name": "",
          "type": "address"
        }
      ],
      "stateMutability": "view",
      "type": "function"
    },
    {
      "inputs": [],
      "name": "getNFTs",
      "outputs": [
        {
          "components": [
            {
              "internalType": "uint256",
              "name": "id",
              "type": "uint256"
            },
            {
              "internalType": "string",
              "name": "uri",
              "type": "string"
            }
          ],
          "internalType": "struct MyNFT.NFT[]",
          "name": "",
          "type": "tuple[]"
        }
      ],
      "stateMutability": "view",
      "type": "function"
    },
    {
      "inputs": [
        {
          "internalType": "address",
          "name": "owner",
          "type": "address"
        },
        {
          "internalType": "address",
          "name": "operator",
          "type": "address"
        }
      ],
      "name": "isApprovedForAll",
      "outputs": [
        {
          "internalType": "bool",
          "name": "",
          "type": "bool"
        }
      ],
      "stateMutability": "view",
      "type": "function"
    },
    {
      "inputs": [
        {
          "internalType": "address",
          "name": "recipient",
          "type": "address"
        },
        {
          "internalType": "string",
          "name": "tokenURI",
          "type": "string"
        }
      ],
      "name": "mintNFT",
      "outputs": [
        {
          "internalType": "uint256",
          "name": "",
          "type": "uint256"
        }
      ],
      "stateMutability": "nonpayable",
      "type": "function"
    },
    {
      "inputs": [],
      "name": "name",
      "outputs": [
        {
          "internalType": "string",
          "name": "",
          "type": "string"
        }
      ],
      "stateMutability": "view",
      "type": "function"
    },
    {
      "inputs": [
        {
          "internalType": "uint256",
          "name": "",
          "type": "uint256"
        }
      ],
      "name": "nfts",
      "outputs": [
        {
          "internalType": "uint256",
          "name": "id",
          "type": "uint256"
        },
        {
          "internalType": "string",
          "name": "uri",
          "type": "string"
        }
      ],
      "stateMutability": "view",
      "type": "function"
    },
    {
      "inputs": [],
      "name": "owner",
      "outputs": [
        {
          "internalType": "address",
          "name": "",
          "type": "address"
        }
      ],
      "stateMutability": "view",
      "type": "function"
    },
    {
      "inputs": [
        {
          "internalType": "uint256",
          "name": "tokenId",
          "type": "uint256"
        }
      ],
      "name": "ownerOf",
      "outputs": [
        {
          "internalType": "address",
          "name": "",
          "type": "address"
        }
      ],
      "stateMutability": "view",
      "type": "function"
    },
    {
      "inputs": [],
      "name": "renounceOwnership",
      "outputs": [],
      "stateMutability": "nonpayable",
      "type": "function"
    },
    {
      "inputs": [
        {
          "internalType": "address",
          "name": "from",
          "type": "address"
        },
        {
          "internalType": "address",
          "name": "to",
          "type": "address"
        },
        {
          "internalType": "uint256",
          "name": "tokenId",
          "type": "uint256"
        }
      ],
      "name": "safeTransferFrom",
      "outputs": [],
      "stateMutability": "nonpayable",
      "type": "function"
    },
    {
      "inputs": [
        {
          "internalType": "address",
          "name": "from",
          "type": "address"
        },
        {
          "internalType": "address",
          "name": "to",
          "type": "address"
        },
        {
          "internalType": "uint256",
          "name": "tokenId",
          "type": "uint256"
        },
        {
          "internalType": "bytes",
          "name": "data",
          "type": "bytes"
        }
      ],
      "name": "safeTransferFrom",
      "outputs": [],
      "stateMutability": "nonpayable",
      "type": "function"
    },
    {
      "inputs": [
        {
          "internalType": "address",
          "name": "operator",
          "type": "address"
        },
        {
          "internalType": "bool",
          "name": "approved",
          "type": "bool"
        }
      ],
      "name": "setApprovalForAll",
      "outputs": [],
      "stateMutability": "nonpayable",
      "type": "function"
    },
    {
      "inputs": [
        {
          "internalType": "bytes4",
          "name": "interfaceId",
          "type": "bytes4"
        }
      ],
      "name": "supportsInterface",
      "outputs": [
        {
          "internalType": "bool",
          "name": "",
          "type": "bool"
        }
      ],
      "stateMutability": "view",
      "type": "function"
    },
    {
      "inputs": [],
      "name": "symbol",
      "outputs": [
        {
          "internalType": "string",
          "name": "",
          "type": "string"
        }
      ],
      "stateMutability": "view",
      "type": "function"
    },
    {
      "inputs": [
        {
          "internalType": "uint256",
          "name": "tokenId",
          "type": "uint256"
        }
      ],
      "name": "tokenURI",
      "outputs": [
        {
          "internalType": "string",
          "name": "",
          "type": "string"
        }
      ],
      "stateMutability": "view",
      "type": "function"
    },
    {
      "inputs": [
        {
          "internalType": "address",
          "name": "from",
          "type": "address"
        },
        {
          "internalType": "address",
          "name": "to",
          "type": "address"
        },
        {
          "internalType": "uint256",
          "name": "tokenId",
          "type": "uint256"
        }
      ],
      "name": "transferFrom",
      "outputs": [],
      "stateMutability": "nonpayable",
      "type": "function"
    },
    {
      "inputs": [
        {
          "internalType": "address",
          "name": "newOwner",
          "type": "address"
        }
      ],
      "name": "transferOwnership",
      "outputs": [],
      "stateMutability": "nonpayable",
      "type": "function"
    }
  ],
  "bytecode": "0x60806040523480156200001157600080fd5b506040518060400160405280600581526020017f4d794e46540000000000000000000000000000000000000000000000000000008152506040518060400160405280600381526020017f4e46540000000000000000000000000000000000000000000000000000000000815250816000908051906020019062000096929190620001a6565b508060019080519060200190620000af929190620001a6565b505050620000d2620000c6620000d860201b60201c565b620000e060201b60201c565b620002bb565b600033905090565b6000600760009054906101000a900473ffffffffffffffffffffffffffffffffffffffff16905081600760006101000a81548173ffffffffffffffffffffffffffffffffffffffff021916908373ffffffffffffffffffffffffffffffffffffffff1602179055508173ffffffffffffffffffffffffffffffffffffffff168173ffffffffffffffffffffffffffffffffffffffff167f8be0079c531659141344cd1fd0a4f28419497f9722a3daafe3b4186f6b6457e060405160405180910390a35050565b828054620001b49062000256565b90600052602060002090601f016020900481019282620001d8576000855562000224565b82601f10620001f357805160ff191683800117855562000224565b8280016001018555821562000224579182015b828111156200022357825182559160200191906001019062000206565b5b50905062000233919062000237565b5090565b5b808211156200025257600081600090555060010162000238565b5090565b600060028204905060018216806200026f57607f821691505b602082108114156200028657620002856200028c565b5b50919050565b7f4e487b7100000000000000000000000000000000000000000000000000000000600052602260045260246000fd5b61318a80620002cb6000396000f3fe608060405234801561001057600080fd5b50600436106101215760003560e01c806370a08231116100ad578063b88d4fde11610071578063b88d4fde14610309578063c87b56dd14610325578063e985e9c514610355578063eacabe1414610385578063f2fde38b146103b557610121565b806370a0823114610277578063715018a6146102a75780638da5cb5b146102b157806395d89b41146102cf578063a22cb465146102ed57610121565b8063227212f2116100f4578063227212f2146101c057806323b872dd146101de578063265aa621146101fa57806342842e0e1461022b5780636352211e1461024757610121565b806301ffc9a71461012657806306fdde0314610156578063081812fc14610174578063095ea7b3146101a4575b600080fd5b610140600480360381019061013b9190612390565b6103d1565b60405161014d9190612880565b60405180910390f35b61015e610432565b60405161016b919061289b565b60405180910390f35b61018e600480360381019061018991906123e2565b6104c4565b60405161019b91906127f7565b60405180910390f35b6101be60048036038101906101b99190612354565b61050a565b005b6101c8610622565b6040516101d5919061285e565b60405180910390f35b6101f860048036038101906101f391906121fa565b61071d565b005b610214600480360381019061020f91906123e2565b61077d565b604051610222929190612a98565b60405180910390f35b610245600480360381019061024091906121fa565b610839565b005b610261600480360381019061025c91906123e2565b610859565b60405161026e91906127f7565b60405180910390f35b610291600480360381019061028c9190612195565b6108e0565b60405161029e9190612a7d565b60405180910390f35b6102af610998565b005b6102b96109ac565b6040516102c691906127f7565b60405180910390f35b6102d76109d6565b6040516102e4919061289b565b60405180910390f35b610307600480360381019061030291906122c4565b610a68565b005b610323600480360381019061031e9190612249565b610a7e565b005b61033f600480360381019061033a91906123e2565b610ae0565b60405161034c919061289b565b60405180910390f35b61036f600480360381019061036a91906121be565b610bf3565b60405161037c9190612880565b60405180910390f35b61039f600480360381019061039a9190612300565b610c87565b6040516103ac9190612a7d565b60405180910390f35b6103cf60048036038101906103ca9190612195565b610d36565b005b6000634906490660e01b7bffffffffffffffffffffffffffffffffffffffffffffffffffffffff1916827bffffffffffffffffffffffffffffffffffffffffffffffffffffffff1916148061042b575061042a82610dba565b5b9050919050565b60606000805461044190612c92565b80601f016020809104026020016040519081016040528092919081815260200182805461046d90612c92565b80156104ba5780601f1061048f576101008083540402835291602001916104ba565b820191906000526020600020905b81548152906001019060200180831161049d57829003601f168201915b5050505050905090565b60006104cf82610e9c565b6004600083815260200190815260200160002060009054906101000a900473ffffffffffffffffffffffffffffffffffffffff169050919050565b600061051582610859565b90508073ffffffffffffffffffffffffffffffffffffffff168373ffffffffffffffffffffffffffffffffffffffff161415610586576040517f08c379a000000000000000000000000000000000000000000000000000000000815260040161057d90612a3d565b60405180910390fd5b8073ffffffffffffffffffffffffffffffffffffffff166105a5610ee7565b73ffffffffffffffffffffffffffffffffffffffff1614806105d457506105d3816105ce610ee7565b610bf3565b5b610613576040517f08c379a000000000000000000000000000000000000000000000000000000000815260040161060a90612a5d565b60405180910390fd5b61061d8383610eef565b505050565b60606009805480602002602001604051908101604052809291908181526020016000905b8282101561071457838290600052602060002090600202016040518060400160405290816000820154815260200160018201805461068390612c92565b80601f01602080910402602001604051908101604052809291908181526020018280546106af90612c92565b80156106fc5780601f106106d1576101008083540402835291602001916106fc565b820191906000526020600020905b8154815290600101906020018083116106df57829003601f168201915b50505050508152505081526020019060010190610646565b50505050905090565b61072e610728610ee7565b82610fa8565b61076d576040517f08c379a0000000000000000000000000000000000000000000000000000000008152600401610764906128bd565b60405180910390fd5b61077883838361103d565b505050565b6009818154811061078d57600080fd5b90600052602060002090600202016000915090508060000154908060010180546107b690612c92565b80601f01602080910402602001604051908101604052809291908181526020018280546107e290612c92565b801561082f5780601f106108045761010080835404028352916020019161082f565b820191906000526020600020905b81548152906001019060200180831161081257829003601f168201915b5050505050905082565b61085483838360405180602001604052806000815250610a7e565b505050565b60008061086583611337565b9050600073ffffffffffffffffffffffffffffffffffffffff168173ffffffffffffffffffffffffffffffffffffffff1614156108d7576040517f08c379a00000000000000000000000000000000000000000000000000000000081526004016108ce90612a1d565b60405180910390fd5b80915050919050565b60008073ffffffffffffffffffffffffffffffffffffffff168273ffffffffffffffffffffffffffffffffffffffff161415610951576040517f08c379a00000000000000000000000000000000000000000000000000000000081526004016109489061299d565b60405180910390fd5b600360008373ffffffffffffffffffffffffffffffffffffffff1673ffffffffffffffffffffffffffffffffffffffff168152602001908152602001600020549050919050565b6109a0611374565b6109aa60006113f2565b565b6000600760009054906101000a900473ffffffffffffffffffffffffffffffffffffffff16905090565b6060600180546109e590612c92565b80601f0160208091040260200160405190810160405280929190818152602001828054610a1190612c92565b8015610a5e5780601f10610a3357610100808354040283529160200191610a5e565b820191906000526020600020905b815481529060010190602001808311610a4157829003601f168201915b5050505050905090565b610a7a610a73610ee7565b83836114b8565b5050565b610a8f610a89610ee7565b83610fa8565b610ace576040517f08c379a0000000000000000000000000000000000000000000000000000000008152600401610ac5906128bd565b60405180910390fd5b610ada84848484611625565b50505050565b6060610aeb82610e9c565b6000600660008481526020019081526020016000208054610b0b90612c92565b80601f0160208091040260200160405190810160405280929190818152602001828054610b3790612c92565b8015610b845780601f10610b5957610100808354040283529160200191610b84565b820191906000526020600020905b815481529060010190602001808311610b6757829003601f168201915b505050505090506000610b95611681565b9050600081511415610bab578192505050610bee565b600082511115610be0578082604051602001610bc89291906127d3565b60405160208183030381529060405292505050610bee565b610be984611698565b925050505b919050565b6000600560008473ffffffffffffffffffffffffffffffffffffffff1673ffffffffffffffffffffffffffffffffffffffff16815260200190815260200160002060008373ffffffffffffffffffffffffffffffffffffffff1673ffffffffffffffffffffffffffffffffffffffff16815260200190815260200160002060009054906101000a900460ff16905092915050565b6000610c91611374565b610c9b6008611700565b6000610ca76008611716565b9050610cb38482611724565b610cbd8184611942565b600060405180604001604052808381526020018581525090506009819080600181540180825580915050600190039060005260206000209060020201600090919091909150600082015181600001556020820151816001019080519060200190610d28929190611fb9565b505050819250505092915050565b610d3e611374565b600073ffffffffffffffffffffffffffffffffffffffff168173ffffffffffffffffffffffffffffffffffffffff161415610dae576040517f08c379a0000000000000000000000000000000000000000000000000000000008152600401610da5906128fd565b60405180910390fd5b610db7816113f2565b50565b60007f80ac58cd000000000000000000000000000000000000000000000000000000007bffffffffffffffffffffffffffffffffffffffffffffffffffffffff1916827bffffffffffffffffffffffffffffffffffffffffffffffffffffffff19161480610e8557507f5b5e139f000000000000000000000000000000000000000000000000000000007bffffffffffffffffffffffffffffffffffffffffffffffffffffffff1916827bffffffffffffffffffffffffffffffffffffffffffffffffffffffff1916145b80610e955750610e94826119ed565b5b9050919050565b610ea581611a57565b610ee4576040517f08c379a0000000000000000000000000000000000000000000000000000000008152600401610edb90612a1d565b60405180910390fd5b50565b600033905090565b816004600083815260200190815260200160002060006101000a81548173ffffffffffffffffffffffffffffffffffffffff021916908373ffffffffffffffffffffffffffffffffffffffff160217905550808273ffffffffffffffffffffffffffffffffffffffff16610f6283610859565b73ffffffffffffffffffffffffffffffffffffffff167f8c5be1e5ebec7d5bd14f71427d1e84f3dd0314c0f7b2291e5b200ac8c7c3b92560405160405180910390a45050565b600080610fb483610859565b90508073ffffffffffffffffffffffffffffffffffffffff168473ffffffffffffffffffffffffffffffffffffffff161480610ff65750610ff58185610bf3565b5b8061103457508373ffffffffffffffffffffffffffffffffffffffff1661101c846104c4565b73ffffffffffffffffffffffffffffffffffffffff16145b91505092915050565b8273ffffffffffffffffffffffffffffffffffffffff1661105d82610859565b73ffffffffffffffffffffffffffffffffffffffff16146110b3576040517f08c379a00000000000000000000000000000000000000000000000000000000081526004016110aa9061291d565b60405180910390fd5b600073ffffffffffffffffffffffffffffffffffffffff168273ffffffffffffffffffffffffffffffffffffffff161415611123576040517f08c379a000000000000000000000000000000000000000000000000000000000815260040161111a9061295d565b60405180910390fd5b6111308383836001611a98565b8273ffffffffffffffffffffffffffffffffffffffff1661115082610859565b73ffffffffffffffffffffffffffffffffffffffff16146111a6576040517f08c379a000000000000000000000000000000000000000000000000000000000815260040161119d9061291d565b60405180910390fd5b6004600082815260200190815260200160002060006101000a81549073ffffffffffffffffffffffffffffffffffffffff02191690556001600360008573ffffffffffffffffffffffffffffffffffffffff1673ffffffffffffffffffffffffffffffffffffffff168152602001908152602001600020600082825403925050819055506001600360008473ffffffffffffffffffffffffffffffffffffffff1673ffffffffffffffffffffffffffffffffffffffff16815260200190815260200160002060008282540192505081905550816002600083815260200190815260200160002060006101000a81548173ffffffffffffffffffffffffffffffffffffffff021916908373ffffffffffffffffffffffffffffffffffffffff160217905550808273ffffffffffffffffffffffffffffffffffffffff168473ffffffffffffffffffffffffffffffffffffffff167fddf252ad1be2c89b69c2b068fc378daa952ba7f163c4a11628f55a4df523b3ef60405160405180910390a46113328383836001611a9e565b505050565b60006002600083815260200190815260200160002060009054906101000a900473ffffffffffffffffffffffffffffffffffffffff169050919050565b61137c610ee7565b73ffffffffffffffffffffffffffffffffffffffff1661139a6109ac565b73ffffffffffffffffffffffffffffffffffffffff16146113f0576040517f08c379a00000000000000000000000000000000000000000000000000000000081526004016113e7906129fd565b60405180910390fd5b565b6000600760009054906101000a900473ffffffffffffffffffffffffffffffffffffffff16905081600760006101000a81548173ffffffffffffffffffffffffffffffffffffffff021916908373ffffffffffffffffffffffffffffffffffffffff1602179055508173ffffffffffffffffffffffffffffffffffffffff168173ffffffffffffffffffffffffffffffffffffffff167f8be0079c531659141344cd1fd0a4f28419497f9722a3daafe3b4186f6b6457e060405160405180910390a35050565b8173ffffffffffffffffffffffffffffffffffffffff168373ffffffffffffffffffffffffffffffffffffffff161415611527576040517f08c379a000000000000000000000000000000000000000000000000000000000815260040161151e9061297d565b60405180910390fd5b80600560008573ffffffffffffffffffffffffffffffffffffffff1673ffffffffffffffffffffffffffffffffffffffff16815260200190815260200160002060008473ffffffffffffffffffffffffffffffffffffffff1673ffffffffffffffffffffffffffffffffffffffff16815260200190815260200160002060006101000a81548160ff0219169083151502179055508173ffffffffffffffffffffffffffffffffffffffff168373ffffffffffffffffffffffffffffffffffffffff167f17307eab39ab6107e8899845ad3d59bd9653f200f220920489ca2b5937696c31836040516116189190612880565b60405180910390a3505050565b61163084848461103d565b61163c84848484611aa4565b61167b576040517f08c379a0000000000000000000000000000000000000000000000000000000008152600401611672906128dd565b60405180910390fd5b50505050565b606060405180602001604052806000815250905090565b60606116a382610e9c565b60006116ad611681565b905060008151116116cd57604051806020016040528060008152506116f8565b806116d784611c3b565b6040516020016116e89291906127d3565b6040516020818303038152906040525b915050919050565b6001816000016000828254019250508190555050565b600081600001549050919050565b600073ffffffffffffffffffffffffffffffffffffffff168273ffffffffffffffffffffffffffffffffffffffff161415611794576040517f08c379a000000000000000000000000000000000000000000000000000000000815260040161178b906129dd565b60405180910390fd5b61179d81611a57565b156117dd576040517f08c379a00000000000000000000000000000000000000000000000000000000081526004016117d49061293d565b60405180910390fd5b6117eb600083836001611a98565b6117f481611a57565b15611834576040517f08c379a000000000000000000000000000000000000000000000000000000000815260040161182b9061293d565b60405180910390fd5b6001600360008473ffffffffffffffffffffffffffffffffffffffff1673ffffffffffffffffffffffffffffffffffffffff16815260200190815260200160002060008282540192505081905550816002600083815260200190815260200160002060006101000a81548173ffffffffffffffffffffffffffffffffffffffff021916908373ffffffffffffffffffffffffffffffffffffffff160217905550808273ffffffffffffffffffffffffffffffffffffffff16600073ffffffffffffffffffffffffffffffffffffffff167fddf252ad1be2c89b69c2b068fc378daa952ba7f163c4a11628f55a4df523b3ef60405160405180910390a461193e600083836001611a9e565b5050565b61194b82611a57565b61198a576040517f08c379a0000000000000000000000000000000000000000000000000000000008152600401611981906129bd565b60405180910390fd5b806006600084815260200190815260200160002090805190602001906119b1929190611fb9565b507ff8e1a15aba9398e019f0b49df1a4fde98ee17ae345cb5f6b5e2c27f5033e8ce7826040516119e19190612a7d565b60405180910390a15050565b60007f01ffc9a7000000000000000000000000000000000000000000000000000000007bffffffffffffffffffffffffffffffffffffffffffffffffffffffff1916827bffffffffffffffffffffffffffffffffffffffffffffffffffffffff1916149050919050565b60008073ffffffffffffffffffffffffffffffffffffffff16611a7983611337565b73ffffffffffffffffffffffffffffffffffffffff1614159050919050565b50505050565b50505050565b6000611ac58473ffffffffffffffffffffffffffffffffffffffff16611d5f565b15611c2e578373ffffffffffffffffffffffffffffffffffffffff1663150b7a02611aee610ee7565b8786866040518563ffffffff1660e01b8152600401611b109493929190612812565b602060405180830381600087803b158015611b2a57600080fd5b505af1925050508015611b5b57506040513d601f19601f82011682018060405250810190611b5891906123b9565b60015b611bde573d8060008114611b8b576040519150601f19603f3d011682016040523d82523d6000602084013e611b90565b606091505b50600081511415611bd6576040517f08c379a0000000000000000000000000000000000000000000000000000000008152600401611bcd906128dd565b60405180910390fd5b805181602001fd5b63150b7a0260e01b7bffffffffffffffffffffffffffffffffffffffffffffffffffffffff1916817bffffffffffffffffffffffffffffffffffffffffffffffffffffffff191614915050611c33565b600190505b949350505050565b606060006001611c4a84611d82565b01905060008167ffffffffffffffff811115611c8f577f4e487b7100000000000000000000000000000000000000000000000000000000600052604160045260246000fd5b6040519080825280601f01601f191660200182016040528015611cc15781602001600182028036833780820191505090505b509050600082602001820190505b600115611d54578080600190039150507f3031323334353637383961626364656600000000000000000000000000000000600a86061a8153600a8581611d3e577f4e487b7100000000000000000000000000000000000000000000000000000000600052601260045260246000fd5b0494506000851415611d4f57611d54565b611ccf565b819350505050919050565b6000808273ffffffffffffffffffffffffffffffffffffffff163b119050919050565b600080600090507a184f03e93ff9f4daa797ed6e38ed64bf6a1f0100000000000000008310611e06577a184f03e93ff9f4daa797ed6e38ed64bf6a1f0100000000000000008381611dfc577f4e487b7100000000000000000000000000000000000000000000000000000000600052601260045260246000fd5b0492506040810190505b6d04ee2d6d415b85acef81000000008310611e69576d04ee2d6d415b85acef81000000008381611e5f577f4e487b7100000000000000000000000000000000000000000000000000000000600052601260045260246000fd5b0492506020810190505b662386f26fc100008310611ebe57662386f26fc100008381611eb4577f4e487b7100000000000000000000000000000000000000000000000000000000600052601260045260246000fd5b0492506010810190505b6305f5e1008310611f0d576305f5e1008381611f03577f4e487b7100000000000000000000000000000000000000000000000000000000600052601260045260246000fd5b0492506008810190505b6127108310611f58576127108381611f4e577f4e487b7100000000000000000000000000000000000000000000000000000000600052601260045260246000fd5b0492506004810190505b60648310611fa15760648381611f97577f4e487b7100000000000000000000000000000000000000000000000000000000600052601260045260246000fd5b0492506002810190505b600a8310611fb0576001810190505b80915050919050565b828054611fc590612c92565b90600052602060002090601f016020900481019282611fe7576000855561202e565b82601f1061200057805160ff191683800117855561202e565b8280016001018555821561202e579182015b8281111561202d578251825591602001919060010190612012565b5b50905061203b919061203f565b5090565b5b80821115612058576000816000905550600101612040565b5090565b600061206f61206a84612aed565b612ac8565b90508281526020810184848401111561208757600080fd5b612092848285612c50565b509392505050565b60006120ad6120a884612b1e565b612ac8565b9050828152602081018484840111156120c557600080fd5b6120d0848285612c50565b509392505050565b6000813590506120e7816130f8565b92915050565b6000813590506120fc8161310f565b92915050565b60008135905061211181613126565b92915050565b60008151905061212681613126565b92915050565b600082601f83011261213d57600080fd5b813561214d84826020860161205c565b91505092915050565b600082601f83011261216757600080fd5b813561217784826020860161209a565b91505092915050565b60008135905061218f8161313d565b92915050565b6000602082840312156121a757600080fd5b60006121b5848285016120d8565b91505092915050565b600080604083850312156121d157600080fd5b60006121df858286016120d8565b92505060206121f0858286016120d8565b9150509250929050565b60008060006060848603121561220f57600080fd5b600061221d868287016120d8565b935050602061222e868287016120d8565b925050604061223f86828701612180565b9150509250925092565b6000806000806080858703121561225f57600080fd5b600061226d878288016120d8565b945050602061227e878288016120d8565b935050604061228f87828801612180565b925050606085013567ffffffffffffffff8111156122ac57600080fd5b6122b88782880161212c565b91505092959194509250565b600080604083850312156122d757600080fd5b60006122e5858286016120d8565b92505060206122f6858286016120ed565b9150509250929050565b6000806040838503121561231357600080fd5b6000612321858286016120d8565b925050602083013567ffffffffffffffff81111561233e57600080fd5b61234a85828601612156565b9150509250929050565b6000806040838503121561236757600080fd5b6000612375858286016120d8565b925050602061238685828601612180565b9150509250929050565b6000602082840312156123a257600080fd5b60006123b084828501612102565b91505092915050565b6000602082840312156123cb57600080fd5b60006123d984828501612117565b91505092915050565b6000602082840312156123f457600080fd5b600061240284828501612180565b91505092915050565b60006124178383612778565b905092915050565b61242881612bdc565b82525050565b600061243982612b5f565b6124438185612b8d565b93508360208202850161245585612b4f565b8060005b858110156124915784840389528151612472858261240b565b945061247d83612b80565b925060208a01995050600181019050612459565b50829750879550505050505092915050565b6124ac81612bee565b82525050565b60006124bd82612b6a565b6124c78185612b9e565b93506124d7818560208601612c5f565b6124e081612d53565b840191505092915050565b60006124f682612b75565b6125008185612baf565b9350612510818560208601612c5f565b61251981612d53565b840191505092915050565b600061252f82612b75565b6125398185612bc0565b9350612549818560208601612c5f565b61255281612d53565b840191505092915050565b600061256882612b75565b6125728185612bd1565b9350612582818560208601612c5f565b80840191505092915050565b600061259b602d83612bc0565b91506125a682612d64565b604082019050919050565b60006125be603283612bc0565b91506125c982612db3565b604082019050919050565b60006125e1602683612bc0565b91506125ec82612e02565b604082019050919050565b6000612604602583612bc0565b915061260f82612e51565b604082019050919050565b6000612627601c83612bc0565b915061263282612ea0565b602082019050919050565b600061264a602483612bc0565b915061265582612ec9565b604082019050919050565b600061266d601983612bc0565b915061267882612f18565b602082019050919050565b6000612690602983612bc0565b915061269b82612f41565b604082019050919050565b60006126b3602e83612bc0565b91506126be82612f90565b604082019050919050565b60006126d6602083612bc0565b91506126e182612fdf565b602082019050919050565b60006126f9602083612bc0565b915061270482613008565b602082019050919050565b600061271c601883612bc0565b915061272782613031565b602082019050919050565b600061273f602183612bc0565b915061274a8261305a565b604082019050919050565b6000612762603d83612bc0565b915061276d826130a9565b604082019050919050565b600060408301600083015161279060008601826127b5565b50602083015184820360208601526127a882826124eb565b9150508091505092915050565b6127be81612c46565b82525050565b6127cd81612c46565b82525050565b60006127df828561255d565b91506127eb828461255d565b91508190509392505050565b600060208201905061280c600083018461241f565b92915050565b6000608082019050612827600083018761241f565b612834602083018661241f565b61284160408301856127c4565b818103606083015261285381846124b2565b905095945050505050565b60006020820190508181036000830152612878818461242e565b905092915050565b600060208201905061289560008301846124a3565b92915050565b600060208201905081810360008301526128b58184612524565b905092915050565b600060208201905081810360008301526128d68161258e565b9050919050565b600060208201905081810360008301526128f6816125b1565b9050919050565b60006020820190508181036000830152612916816125d4565b9050919050565b60006020820190508181036000830152612936816125f7565b9050919050565b600060208201905081810360008301526129568161261a565b9050919050565b600060208201905081810360008301526129768161263d565b9050919050565b6000602082019050818103600083015261299681612660565b9050919050565b600060208201905081810360008301526129b681612683565b9050919050565b600060208201905081810360008301526129d6816126a6565b9050919050565b600060208201905081810360008301526129f6816126c9565b9050919050565b60006020820190508181036000830152612a16816126ec565b9050919050565b60006020820190508181036000830152612a368161270f565b9050919050565b60006020820190508181036000830152612a5681612732565b9050919050565b60006020820190508181036000830152612a7681612755565b9050919050565b6000602082019050612a9260008301846127c4565b92915050565b6000604082019050612aad60008301856127c4565b8181036020830152612abf8184612524565b90509392505050565b6000612ad2612ae3565b9050612ade8282612cc4565b919050565b6000604051905090565b600067ffffffffffffffff821115612b0857612b07612d24565b5b612b1182612d53565b9050602081019050919050565b600067ffffffffffffffff821115612b3957612b38612d24565b5b612b4282612d53565b9050602081019050919050565b6000819050602082019050919050565b600081519050919050565b600081519050919050565b600081519050919050565b6000602082019050919050565b600082825260208201905092915050565b600082825260208201905092915050565b600082825260208201905092915050565b600082825260208201905092915050565b600081905092915050565b6000612be782612c26565b9050919050565b60008115159050919050565b60007fffffffff0000000000000000000000000000000000000000000000000000000082169050919050565b600073ffffffffffffffffffffffffffffffffffffffff82169050919050565b6000819050919050565b82818337600083830152505050565b60005b83811015612c7d578082015181840152602081019050612c62565b83811115612c8c576000848401525b50505050565b60006002820490506001821680612caa57607f821691505b60208210811415612cbe57612cbd612cf5565b5b50919050565b612ccd82612d53565b810181811067ffffffffffffffff82111715612cec57612ceb612d24565b5b80604052505050565b7f4e487b7100000000000000000000000000000000000000000000000000000000600052602260045260246000fd5b7f4e487b7100000000000000000000000000000000000000000000000000000000600052604160045260246000fd5b6000601f19601f8301169050919050565b7f4552433732313a2063616c6c6572206973206e6f7420746f6b656e206f776e6560008201527f72206f7220617070726f76656400000000000000000000000000000000000000602082015250565b7f4552433732313a207472616e7366657220746f206e6f6e20455243373231526560008201527f63656976657220696d706c656d656e7465720000000000000000000000000000602082015250565b7f4f776e61626c653a206e6577206f776e657220697320746865207a65726f206160008201527f6464726573730000000000000000000000000000000000000000000000000000602082015250565b7f4552433732313a207472616e736665722066726f6d20696e636f72726563742060008201527f6f776e6572000000000000000000000000000000000000000000000000000000602082015250565b7f4552433732313a20746f6b656e20616c7265616479206d696e74656400000000600082015250565b7f4552433732313a207472616e7366657220746f20746865207a65726f2061646460008201527f7265737300000000000000000000000000000000000000000000000000000000602082015250565b7f4552433732313a20617070726f766520746f2063616c6c657200000000000000600082015250565b7f4552433732313a2061646472657373207a65726f206973206e6f74206120766160008201527f6c6964206f776e65720000000000000000000000000000000000000000000000602082015250565b7f45524337323155524953746f726167653a2055524920736574206f66206e6f6e60008201527f6578697374656e7420746f6b656e000000000000000000000000000000000000602082015250565b7f4552433732313a206d696e7420746f20746865207a65726f2061646472657373600082015250565b7f4f776e61626c653a2063616c6c6572206973206e6f7420746865206f776e6572600082015250565b7f4552433732313a20696e76616c696420746f6b656e2049440000000000000000600082015250565b7f4552433732313a20617070726f76616c20746f2063757272656e74206f776e6560008201527f7200000000000000000000000000000000000000000000000000000000000000602082015250565b7f4552433732313a20617070726f76652063616c6c6572206973206e6f7420746f60008201527f6b656e206f776e6572206f7220617070726f76656420666f7220616c6c000000602082015250565b61310181612bdc565b811461310c57600080fd5b50565b61311881612bee565b811461312357600080fd5b50565b61312f81612bfa565b811461313a57600080fd5b50565b61314681612c46565b811461315157600080fd5b5056fea264697066735822122029da3521ecc13b24ed35d2aa1eeaa3c529000fc8253c230347516745c7660a2a64736f6c63430008010033",
  "linkReferences": {},
  "deployedLinkReferences": {}
}