{
  "_format": "hh-sol-artifact-1",
  "contractName": "NFTMarketplace",
  "sourceName": "contracts/NFTMarketplace.sol",
  "abi": [
    {
      "anonymous": false,
      "inputs": [
        {
          "indexed": true,
          "internalType": "uint256",
          "name": "listingId",
          "type": "uint256"
        },
        {
          "indexed": true,
          "internalType": "address",
          "name": "seller",
          "type": "address"
        },
        {
          "indexed": true,
          "internalType": "address",
          "name": "nftContract",
          "type": "address"
        },
        {
          "indexed": false,
          "internalType": "uint256",
          "name": "tokenId",
          "type": "uint256"
        },
        {
          "indexed": false,
          "internalType": "uint256",
          "name": "price",
          "type": "uint256"
        }
      ],
      "name": "NFTListed",
      "type": "event"
    },
    {
      "anonymous": false,
      "inputs": [
        {
          "indexed": true,
          "internalType": "uint256",
          "name": "listingId",
          "type": "uint256"
        },
        {
          "indexed": true,
          "internalType": "address",
          "name": "seller",
          "type": "address"
        },
        {
          "indexed": true,
          "internalType": "address",
          "name": "buyer",
          "type": "address"
        },
        {
          "indexed": false,
          "internalType": "address",
          "name": "nftContract",
          "type": "address"
        },
        {
          "indexed": false,
          "internalType": "uint256",
          "name": "tokenId",
          "type": "uint256"
        },
        {
          "indexed": false,
          "internalType": "uint256",
          "name": "price",
          "type": "uint256"
        }
      ],
      "name": "NFTSold",
      "type": "event"
    },
    {
      "inputs": [
        {
          "internalType": "uint256",
          "name": "_listingId",
          "type": "uint256"
        }
      ],
      "name": "buyNFT",
      "outputs": [],
      "stateMutability": "payable",
      "type": "function"
    },
    {
      "inputs": [
        {
          "internalType": "address",
          "name": "_seller",
          "type": "address"
        }
      ],
      "name": "getActiveListingsBySeller",
      "outputs": [
        {
          "internalType": "uint256[]",
          "name": "",
          "type": "uint256[]"
        }
      ],
      "stateMutability": "view",
      "type": "function"
    },
    {
      "inputs": [
        {
          "internalType": "address",
          "name": "_nftContract",
          "type": "address"
        },
        {
          "internalType": "uint256",
          "name": "_tokenId",
          "type": "uint256"
        },
        {
          "internalType": "uint256",
          "name": "_price",
          "type": "uint256"
        }
      ],
      "name": "listNFTForSale",
      "outputs": [],
      "stateMutability": "nonpayable",
      "type": "function"
    },
    {
      "inputs": [
        {
          "internalType": "uint256",
          "name": "",
          "type": "uint256"
        }
      ],
      "name": "listings",
      "outputs": [
        {
          "internalType": "address",
          "name": "seller",
          "type": "address"
        },
        {
          "internalType": "address",
          "name": "nftContract",
          "type": "address"
        },
        {
          "internalType": "uint256",
          "name": "tokenId",
          "type": "uint256"
        },
        {
          "internalType": "uint256",
          "name": "price",
          "type": "uint256"
        },
        {
          "internalType": "bool",
          "name": "active",
          "type": "bool"
        }
      ],
      "stateMutability": "view",
      "type": "function"
    },
    {
      "inputs": [
        {
          "internalType": "address",
          "name": "",
          "type": "address"
        },
        {
          "internalType": "address",
          "name": "",
          "type": "address"
        },
        {
          "internalType": "uint256",
          "name": "",
          "type": "uint256"
        },
        {
          "internalType": "bytes",
          "name": "",
          "type": "bytes"
        }
      ],
      "name": "onERC721Received",
      "outputs": [
        {
          "internalType": "bytes4",
          "name": "",
          "type": "bytes4"
        }
      ],
      "stateMutability": "nonpayable",
      "type": "function"
    }
  ],
  "bytecode": "0x608060405234801561001057600080fd5b506111e9806100206000396000f3fe60806040526004361061004a5760003560e01c8063150b7a021461004f5780633ae6c6d61461008c57806351ed8288146100b5578063d9a281c9146100d1578063de74e57b1461010e575b600080fd5b34801561005b57600080fd5b5061007660048036038101906100719190610a56565b61014f565b6040516100839190610d9c565b60405180910390f35b34801561009857600080fd5b506100b360048036038101906100ae9190610ad1565b610163565b005b6100cf60048036038101906100ca9190610b20565b610540565b005b3480156100dd57600080fd5b506100f860048036038101906100f39190610a04565b610833565b6040516101059190610d7a565b60405180910390f35b34801561011a57600080fd5b5061013560048036038101906101309190610b20565b6108ca565b604051610146959493929190610cf0565b60405180910390f35b600063150b7a0260e01b9050949350505050565b600081116101a6576040517f08c379a000000000000000000000000000000000000000000000000000000000815260040161019d90610dd7565b60405180910390fd5b60008390503373ffffffffffffffffffffffffffffffffffffffff168173ffffffffffffffffffffffffffffffffffffffff16636352211e856040518263ffffffff1660e01b81526004016101fb9190610e57565b60206040518083038186803b15801561021357600080fd5b505afa158015610227573d6000803e3d6000fd5b505050506040513d601f19601f8201168201806040525081019061024b9190610a2d565b73ffffffffffffffffffffffffffffffffffffffff16146102a1576040517f08c379a000000000000000000000000000000000000000000000000000000000815260040161029890610e17565b60405180910390fd5b8073ffffffffffffffffffffffffffffffffffffffff166342842e0e3330866040518463ffffffff1660e01b81526004016102de93929190610cb9565b600060405180830381600087803b1580156102f857600080fd5b505af115801561030c573d6000803e3d6000fd5b5050505060006040518060a001604052803373ffffffffffffffffffffffffffffffffffffffff1681526020018673ffffffffffffffffffffffffffffffffffffffff16815260200185815260200184815260200160011515815250908060018154018082558091505060019003906000526020600020906005020160009091909190915060008201518160000160006101000a81548173ffffffffffffffffffffffffffffffffffffffff021916908373ffffffffffffffffffffffffffffffffffffffff16021790555060208201518160010160006101000a81548173ffffffffffffffffffffffffffffffffffffffff021916908373ffffffffffffffffffffffffffffffffffffffff160217905550604082015181600201556060820151816003015560808201518160040160006101000a81548160ff0219169083151502179055505050600060016000805490506104699190610f3b565b9050600160003373ffffffffffffffffffffffffffffffffffffffff1673ffffffffffffffffffffffffffffffffffffffff1681526020019081526020016000208190806001815401808255809150506001900390600052602060002001600090919091909150558473ffffffffffffffffffffffffffffffffffffffff163373ffffffffffffffffffffffffffffffffffffffff16827fb0fe4922ac99799c17a4130d5c045ba2ecdf6e15b75b9ea84aaf0dc28724a42b8787604051610531929190610e72565b60405180910390a45050505050565b6000805490508110610587576040517f08c379a000000000000000000000000000000000000000000000000000000000815260040161057e90610db7565b60405180910390fd5b60008082815481106105c2577f4e487b7100000000000000000000000000000000000000000000000000000000600052603260045260246000fd5b906000526020600020906005020190508060040160009054906101000a900460ff16610623576040517f08c379a000000000000000000000000000000000000000000000000000000000815260040161061a90610e37565b60405180910390fd5b806003015434101561066a576040517f08c379a000000000000000000000000000000000000000000000000000000000815260040161066190610df7565b60405180910390fd5b60008160000160009054906101000a900473ffffffffffffffffffffffffffffffffffffffff16905060008260010160009054906101000a900473ffffffffffffffffffffffffffffffffffffffff1690508073ffffffffffffffffffffffffffffffffffffffff166342842e0e303386600201546040518463ffffffff1660e01b81526004016106fd93929190610cb9565b600060405180830381600087803b15801561071757600080fd5b505af115801561072b573d6000803e3d6000fd5b505050508173ffffffffffffffffffffffffffffffffffffffff166108fc84600301549081150290604051600060405180830381858888f19350505050158015610779573d6000803e3d6000fd5b5060008360040160006101000a81548160ff0219169083151502179055503373ffffffffffffffffffffffffffffffffffffffff168273ffffffffffffffffffffffffffffffffffffffff16857f88f63fa89cb6cf4da421a869453f09e48f4a2e670eb9dac1f4cd89afa53333728660010160009054906101000a900473ffffffffffffffffffffffffffffffffffffffff168760020154886003015460405161082593929190610d43565b60405180910390a450505050565b6060600160008373ffffffffffffffffffffffffffffffffffffffff1673ffffffffffffffffffffffffffffffffffffffff1681526020019081526020016000208054806020026020016040519081016040528092919081815260200182805480156108be57602002820191906000526020600020905b8154815260200190600101908083116108aa575b50505050509050919050565b600081815481106108da57600080fd5b90600052602060002090600502016000915090508060000160009054906101000a900473ffffffffffffffffffffffffffffffffffffffff16908060010160009054906101000a900473ffffffffffffffffffffffffffffffffffffffff16908060020154908060030154908060040160009054906101000a900460ff16905085565b600061097061096b84610ec0565b610e9b565b90508281526020810184848401111561098857600080fd5b610993848285610fe3565b509392505050565b6000813590506109aa81611185565b92915050565b6000815190506109bf81611185565b92915050565b600082601f8301126109d657600080fd5b81356109e684826020860161095d565b91505092915050565b6000813590506109fe8161119c565b92915050565b600060208284031215610a1657600080fd5b6000610a248482850161099b565b91505092915050565b600060208284031215610a3f57600080fd5b6000610a4d848285016109b0565b91505092915050565b60008060008060808587031215610a6c57600080fd5b6000610a7a8782880161099b565b9450506020610a8b8782880161099b565b9350506040610a9c878288016109ef565b925050606085013567ffffffffffffffff811115610ab957600080fd5b610ac5878288016109c5565b91505092959194509250565b600080600060608486031215610ae657600080fd5b6000610af48682870161099b565b9350506020610b05868287016109ef565b9250506040610b16868287016109ef565b9150509250925092565b600060208284031215610b3257600080fd5b6000610b40848285016109ef565b91505092915050565b6000610b558383610c9b565b60208301905092915050565b610b6a81610f6f565b82525050565b6000610b7b82610f01565b610b858185610f19565b9350610b9083610ef1565b8060005b83811015610bc1578151610ba88882610b49565b9750610bb383610f0c565b925050600181019050610b94565b5085935050505092915050565b610bd781610f81565b82525050565b610be681610f8d565b82525050565b6000610bf9601283610f2a565b9150610c0482611092565b602082019050919050565b6000610c1c601f83610f2a565b9150610c27826110bb565b602082019050919050565b6000610c3f601283610f2a565b9150610c4a826110e4565b602082019050919050565b6000610c62602783610f2a565b9150610c6d8261110d565b604082019050919050565b6000610c85601583610f2a565b9150610c908261115c565b602082019050919050565b610ca481610fd9565b82525050565b610cb381610fd9565b82525050565b6000606082019050610cce6000830186610b61565b610cdb6020830185610b61565b610ce86040830184610caa565b949350505050565b600060a082019050610d056000830188610b61565b610d126020830187610b61565b610d1f6040830186610caa565b610d2c6060830185610caa565b610d396080830184610bce565b9695505050505050565b6000606082019050610d586000830186610b61565b610d656020830185610caa565b610d726040830184610caa565b949350505050565b60006020820190508181036000830152610d948184610b70565b905092915050565b6000602082019050610db16000830184610bdd565b92915050565b60006020820190508181036000830152610dd081610bec565b9050919050565b60006020820190508181036000830152610df081610c0f565b9050919050565b60006020820190508181036000830152610e1081610c32565b9050919050565b60006020820190508181036000830152610e3081610c55565b9050919050565b60006020820190508181036000830152610e5081610c78565b9050919050565b6000602082019050610e6c6000830184610caa565b92915050565b6000604082019050610e876000830185610caa565b610e946020830184610caa565b9392505050565b6000610ea5610eb6565b9050610eb18282610ff2565b919050565b6000604051905090565b600067ffffffffffffffff821115610edb57610eda611052565b5b610ee482611081565b9050602081019050919050565b6000819050602082019050919050565b600081519050919050565b6000602082019050919050565b600082825260208201905092915050565b600082825260208201905092915050565b6000610f4682610fd9565b9150610f5183610fd9565b925082821015610f6457610f63611023565b5b828203905092915050565b6000610f7a82610fb9565b9050919050565b60008115159050919050565b60007fffffffff0000000000000000000000000000000000000000000000000000000082169050919050565b600073ffffffffffffffffffffffffffffffffffffffff82169050919050565b6000819050919050565b82818337600083830152505050565b610ffb82611081565b810181811067ffffffffffffffff8211171561101a57611019611052565b5b80604052505050565b7f4e487b7100000000000000000000000000000000000000000000000000000000600052601160045260246000fd5b7f4e487b7100000000000000000000000000000000000000000000000000000000600052604160045260246000fd5b6000601f19601f8301169050919050565b7f496e76616c6964206c697374696e672049440000000000000000000000000000600082015250565b7f5072696365206d7573742062652067726561746572207468616e207a65726f00600082015250565b7f496e73756666696369656e742066756e64730000000000000000000000000000600082015250565b7f4f6e6c7920746865204e4654206f776e65722063616e206c697374206974206660008201527f6f722073616c6500000000000000000000000000000000000000000000000000602082015250565b7f4c697374696e67206973206e6f74206163746976650000000000000000000000600082015250565b61118e81610f6f565b811461119957600080fd5b50565b6111a581610fd9565b81146111b057600080fd5b5056fea264697066735822122058be2c5f3657dd1f23524611c08bcfe7b2be29a517eb235ed0072e48acffa97364736f6c63430008010033",
  "linkReferences": {},
  "deployedLinkReferences": {}
}